{
  "address": "0xf90cE9d085bf6545cB983C806a09b2E155a96192",
  "abi": [
    {
      "inputs": [
        {
          "internalType": "address",
          "name": "dscAddress",
          "type": "address"
        },
        {
          "internalType": "address",
          "name": "_convertorAddress",
          "type": "address"
        }
      ],
      "stateMutability": "nonpayable",
      "type": "constructor"
    },
    {
      "inputs": [],
      "name": "nDSCEngine__InsufficientBalance",
      "type": "error"
    },
    {
      "inputs": [],
      "name": "nDSCEngine__NeedsMoreThanZero",
      "type": "error"
    },
    {
      "inputs": [],
      "name": "nUSDEngine__MintFailed",
      "type": "error"
    },
    {
      "inputs": [],
      "name": "nUSDEngine__TransferFailed",
      "type": "error"
    },
    {
      "anonymous": false,
      "inputs": [
        {
          "indexed": true,
          "internalType": "address",
          "name": "User",
          "type": "address"
        },
        {
          "indexed": true,
          "internalType": "uint256",
          "name": "amount",
          "type": "uint256"
        }
      ],
      "name": "Deposited",
      "type": "event"
    },
    {
      "anonymous": false,
      "inputs": [
        {
          "indexed": true,
          "internalType": "address",
          "name": "User",
          "type": "address"
        },
        {
          "indexed": true,
          "internalType": "uint256",
          "name": "amount",
          "type": "uint256"
        }
      ],
      "name": "Redeemed",
      "type": "event"
    },
    {
      "inputs": [],
      "name": "deposite",
      "outputs": [],
      "stateMutability": "payable",
      "type": "function"
    },
    {
      "inputs": [
        {
          "internalType": "address",
          "name": "user",
          "type": "address"
        }
      ],
      "name": "getBalance",
      "outputs": [
        {
          "internalType": "uint256",
          "name": "",
          "type": "uint256"
        }
      ],
      "stateMutability": "view",
      "type": "function"
    },
    {
      "inputs": [
        {
          "internalType": "address",
          "name": "user",
          "type": "address"
        }
      ],
      "name": "getDepositBalance",
      "outputs": [
        {
          "internalType": "uint256",
          "name": "",
          "type": "uint256"
        }
      ],
      "stateMutability": "view",
      "type": "function"
    },
    {
      "inputs": [],
      "name": "getTotalSupply",
      "outputs": [
        {
          "internalType": "uint256",
          "name": "",
          "type": "uint256"
        }
      ],
      "stateMutability": "view",
      "type": "function"
    },
    {
      "inputs": [
        {
          "internalType": "uint256",
          "name": "amount",
          "type": "uint256"
        }
      ],
      "name": "redeem",
      "outputs": [],
      "stateMutability": "nonpayable",
      "type": "function"
    }
  ],
  "transactionHash": "0xf0d24ebdaeae0d3a12519eb44990381ae2504dc7f6f418564e82520e09b341c9",
  "args": [
    "0xbE525dAC9110044ABcdDCbEAA76F5bcE726A7f6D",
    "0x694AA1769357215DE4FAC081bf1f309aDC325306"
  ],
  "numDeployments": 2,
  "solcInputHash": "b363cb7ad0c421440c830742ac862c95",
  "bytecode": "0x60c060405234801561001057600080fd5b5060405162000f0438038062000f04833981810160405281019061003491906100c6565b60016000819055508173ffffffffffffffffffffffffffffffffffffffff1660808173ffffffffffffffffffffffffffffffffffffffff1660601b815250508073ffffffffffffffffffffffffffffffffffffffff1660a08173ffffffffffffffffffffffffffffffffffffffff1660601b815250505050610154565b6000815190506100c08161013d565b92915050565b600080604083850312156100dd576100dc610138565b5b60006100eb858286016100b1565b92505060206100fc858286016100b1565b9150509250929050565b600061011182610118565b9050919050565b600073ffffffffffffffffffffffffffffffffffffffff82169050919050565b600080fd5b61014681610106565b811461015157600080fd5b50565b60805160601c60a05160601c610d686200019c6000396000818161018301526105d901526000818161029101528181610429015281816106ab01526108230152610d686000f3fe60806040526004361061004a5760003560e01c8063a50ec3261461004f578063c4e41b2214610059578063db006a7514610084578063ed05ae78146100ad578063f8b2cb4f146100ea575b600080fd5b610057610127565b005b34801561006557600080fd5b5061006e610425565b60405161007b9190610ad8565b60405180910390f35b34801561009057600080fd5b506100ab60048036038101906100a691906109d9565b6104ca565b005b3480156100b957600080fd5b506100d460048036038101906100cf919061097f565b6107d6565b6040516100e19190610ad8565b60405180910390f35b3480156100f657600080fd5b50610111600480360381019061010c919061097f565b61081f565b60405161011e9190610ad8565b60405180910390f35b346000811415610163576040517f441f236c00000000000000000000000000000000000000000000000000000000815260040160405180910390fd5b61016b6108d1565b6000633b9aca003461017d9190610b5a565b905060007f000000000000000000000000000000000000000000000000000000000000000073ffffffffffffffffffffffffffffffffffffffff16636e5b6b28836040518263ffffffff1660e01b81526004016101da9190610ad8565b60206040518083038186803b1580156101f257600080fd5b505afa158015610206573d6000803e3d6000fd5b505050506040513d601f19601f8201168201806040525081019061022a9190610a06565b905060006064603267ffffffffffffffff16836102479190610b8b565b6102519190610b5a565b90506000811161028d576040517f441f236c00000000000000000000000000000000000000000000000000000000815260040160405180910390fd5b60007f000000000000000000000000000000000000000000000000000000000000000073ffffffffffffffffffffffffffffffffffffffff166340c10f1933846040518363ffffffff1660e01b81526004016102ea929190610a8f565b602060405180830381600087803b15801561030457600080fd5b505af1158015610318573d6000803e3d6000fd5b505050506040513d601f19601f8201168201806040525081019061033c91906109ac565b9050600115158115151461037c576040517fd4f0b6d600000000000000000000000000000000000000000000000000000000815260040160405180910390fd5b83600160003373ffffffffffffffffffffffffffffffffffffffff1673ffffffffffffffffffffffffffffffffffffffff16815260200190815260200160002060008282546103cb9190610b04565b92505081905550833373ffffffffffffffffffffffffffffffffffffffff167f2da466a7b24304f47e87fa2e1e5a81b9831ce54fec19055ce277ca2f39ba42c460405160405180910390a350505050610422610921565b50565b60007f000000000000000000000000000000000000000000000000000000000000000073ffffffffffffffffffffffffffffffffffffffff166318160ddd6040518163ffffffff1660e01b815260040160206040518083038186803b15801561048d57600080fd5b505afa1580156104a1573d6000803e3d6000fd5b505050506040513d601f19601f820116820180604052508101906104c59190610a06565b905090565b806000811415610506576040517f441f236c00000000000000000000000000000000000000000000000000000000815260040160405180910390fd5b81600160003373ffffffffffffffffffffffffffffffffffffffff1673ffffffffffffffffffffffffffffffffffffffff16815260200190815260200160002054101561057f576040517f7a669f9400000000000000000000000000000000000000000000000000000000815260040160405180910390fd5b81600160003373ffffffffffffffffffffffffffffffffffffffff1673ffffffffffffffffffffffffffffffffffffffff16815260200190815260200160002060008282546105ce9190610be5565b9250508190555060007f000000000000000000000000000000000000000000000000000000000000000073ffffffffffffffffffffffffffffffffffffffff16636e5b6b28846040518263ffffffff1660e01b81526004016106309190610ad8565b60206040518083038186803b15801561064857600080fd5b505afa15801561065c573d6000803e3d6000fd5b505050506040513d601f19601f820116820180604052508101906106809190610a06565b905060006064603267ffffffffffffffff168361069d9190610b8b565b6106a79190610b5a565b90507f000000000000000000000000000000000000000000000000000000000000000073ffffffffffffffffffffffffffffffffffffffff16639dc29fac33836040518363ffffffff1660e01b8152600401610704929190610a8f565b600060405180830381600087803b15801561071e57600080fd5b505af1158015610732573d6000803e3d6000fd5b505050503373ffffffffffffffffffffffffffffffffffffffff166108fc633b9aca00866107609190610b8b565b9081150290604051600060405180830381858888f1935050505015801561078b573d6000803e3d6000fd5b50833373ffffffffffffffffffffffffffffffffffffffff167f4896181ff8f4543cc00db9fe9b6fb7e6f032b7eb772c72ab1ec1b4d2e03b936960405160405180910390a350505050565b6000600160008373ffffffffffffffffffffffffffffffffffffffff1673ffffffffffffffffffffffffffffffffffffffff168152602001908152602001600020549050919050565b60007f000000000000000000000000000000000000000000000000000000000000000073ffffffffffffffffffffffffffffffffffffffff166370a08231836040518263ffffffff1660e01b815260040161087a9190610a74565b60206040518083038186803b15801561089257600080fd5b505afa1580156108a6573d6000803e3d6000fd5b505050506040513d601f19601f820116820180604052508101906108ca9190610a06565b9050919050565b60026000541415610917576040517f08c379a000000000000000000000000000000000000000000000000000000000815260040161090e90610ab8565b60405180910390fd5b6002600081905550565b6001600081905550565b60008135905061093a81610ced565b92915050565b60008151905061094f81610d04565b92915050565b60008135905061096481610d1b565b92915050565b60008151905061097981610d1b565b92915050565b60006020828403121561099557610994610cbf565b5b60006109a38482850161092b565b91505092915050565b6000602082840312156109c2576109c1610cbf565b5b60006109d084828501610940565b91505092915050565b6000602082840312156109ef576109ee610cbf565b5b60006109fd84828501610955565b91505092915050565b600060208284031215610a1c57610a1b610cbf565b5b6000610a2a8482850161096a565b91505092915050565b610a3c81610c19565b82525050565b6000610a4f601f83610af3565b9150610a5a82610cc4565b602082019050919050565b610a6e81610c57565b82525050565b6000602082019050610a896000830184610a33565b92915050565b6000604082019050610aa46000830185610a33565b610ab16020830184610a65565b9392505050565b60006020820190508181036000830152610ad181610a42565b9050919050565b6000602082019050610aed6000830184610a65565b92915050565b600082825260208201905092915050565b6000610b0f82610c57565b9150610b1a83610c57565b9250827fffffffffffffffffffffffffffffffffffffffffffffffffffffffffffffffff03821115610b4f57610b4e610c61565b5b828201905092915050565b6000610b6582610c57565b9150610b7083610c57565b925082610b8057610b7f610c90565b5b828204905092915050565b6000610b9682610c57565b9150610ba183610c57565b9250817fffffffffffffffffffffffffffffffffffffffffffffffffffffffffffffffff0483118215151615610bda57610bd9610c61565b5b828202905092915050565b6000610bf082610c57565b9150610bfb83610c57565b925082821015610c0e57610c0d610c61565b5b828203905092915050565b6000610c2482610c37565b9050919050565b60008115159050919050565b600073ffffffffffffffffffffffffffffffffffffffff82169050919050565b6000819050919050565b7f4e487b7100000000000000000000000000000000000000000000000000000000600052601160045260246000fd5b7f4e487b7100000000000000000000000000000000000000000000000000000000600052601260045260246000fd5b600080fd5b7f5265656e7472616e637947756172643a207265656e7472616e742063616c6c00600082015250565b610cf681610c19565b8114610d0157600080fd5b50565b610d0d81610c2b565b8114610d1857600080fd5b50565b610d2481610c57565b8114610d2f57600080fd5b5056fea2646970667358221220fbd6bf088a4e5e44f9a983fb75df82824e3bc124baa370d8b9526d145883b7cd64736f6c63430008070033",
  "devdoc": {
    "author": "Parthib Datta  The system is designed to be as minimal as possible, and have the tokens maintain a (1/2 of Price of ETH) token == Price of ETH peg at all times. This is a stablecoin with the properties: - Exogenously Collateralized - ETH Pegged - Algorithmically Stable It is similar to DAI if DAI had no governance, no fees, and was backed by only ETH.",
    "kind": "dev",
    "methods": {
      "constructor": {
        "params": {
          "_convertorAddress": ": Address of the converter contract",
          "dscAddress": ": Address of the token"
        }
      },
      "redeem(uint256)": {
        "params": {
          "amount": ": The Amount of ETH you want to redeem in Gwei"
        }
      }
    },
    "title": "nUSDEngine",
    "version": 1
  },
  "userdoc": {
    "kind": "user",
    "methods": {
      "deposite()": {
        "notice": "The amount of ETH you want to deposit"
      }
    },
    "notice": "This contract is the core of the Decentralized Stablecoin system. It handles all the logic for minting and redeeming DSC, as well as depositing and withdrawing collateral.  This contract is just the ERC20 implementation of our stablecoin system",
    "version": 1
  },
  "storageLayout": {
    "storage": [
      {
        "astId": 56,
        "contract": "contracts/nUSDEngine.sol:nUSDEngine",
        "label": "_status",
        "offset": 0,
        "slot": "0",
        "type": "t_uint256"
      },
      {
        "astId": 1001,
        "contract": "contracts/nUSDEngine.sol:nUSDEngine",
        "label": "balances",
        "offset": 0,
        "slot": "1",
        "type": "t_mapping(t_address,t_uint256)"
      }
    ],
    "types": {
      "t_address": {
        "encoding": "inplace",
        "label": "address",
        "numberOfBytes": "20"
      },
      "t_mapping(t_address,t_uint256)": {
        "encoding": "mapping",
        "key": "t_address",
        "label": "mapping(address => uint256)",
        "numberOfBytes": "32",
        "value": "t_uint256"
      },
      "t_uint256": {
        "encoding": "inplace",
        "label": "uint256",
        "numberOfBytes": "32"
      }
    }
  }
}